{
  "address": "0xD839e3eF8f1cD3cA0A851CEc2E82f340863054A3",
  "abi": [
    {
      "anonymous": false,
      "inputs": [
        {
          "indexed": false,
          "internalType": "address",
          "name": "from",
          "type": "address"
        },
        {
          "indexed": false,
          "internalType": "address payable[]",
          "name": "tos",
          "type": "address[]"
        },
        {
          "indexed": false,
          "internalType": "uint256[]",
          "name": "value",
          "type": "uint256[]"
        },
        {
          "indexed": false,
          "internalType": "string",
          "name": "data",
          "type": "string"
        }
      ],
      "name": "MultiValueTransfer",
      "type": "event"
    },
    {
      "anonymous": false,
      "inputs": [
        {
          "indexed": false,
          "internalType": "address",
          "name": "contractAddr",
          "type": "address"
        },
        {
          "indexed": false,
          "internalType": "address",
          "name": "from",
          "type": "address"
        },
        {
          "indexed": false,
          "internalType": "address[]",
          "name": "tos",
          "type": "address[]"
        },
        {
          "indexed": false,
          "internalType": "uint256[]",
          "name": "value",
          "type": "uint256[]"
        },
        {
          "indexed": false,
          "internalType": "string",
          "name": "data",
          "type": "string"
        }
      ],
      "name": "MultiValueTransferErc20",
      "type": "event"
    },
    {
      "anonymous": false,
      "inputs": [
        {
          "indexed": false,
          "internalType": "address",
          "name": "contractAddr",
          "type": "address"
        },
        {
          "indexed": false,
          "internalType": "address",
          "name": "from",
          "type": "address"
        },
        {
          "indexed": false,
          "internalType": "address[]",
          "name": "tos",
          "type": "address[]"
        },
        {
          "indexed": false,
          "internalType": "uint256[]",
          "name": "tokenIds",
          "type": "uint256[]"
        },
        {
          "indexed": false,
          "internalType": "string",
          "name": "data",
          "type": "string"
        }
      ],
      "name": "MultiValueTransferErc721",
      "type": "event"
    },
    {
      "inputs": [
        {
          "internalType": "address",
          "name": "tokenAddr",
          "type": "address"
        },
        {
          "internalType": "address[]",
          "name": "addrs",
          "type": "address[]"
        },
        {
          "internalType": "uint256[]",
          "name": "values",
          "type": "uint256[]"
        },
        {
          "internalType": "uint256",
          "name": "len",
          "type": "uint256"
        },
        {
          "internalType": "uint256",
          "name": "_totalValue",
          "type": "uint256"
        },
        {
          "internalType": "string",
          "name": "data",
          "type": "string"
        }
      ],
      "name": "transferManyErc20Value",
      "outputs": [],
      "stateMutability": "nonpayable",
      "type": "function"
    },
    {
      "inputs": [
        {
          "internalType": "address",
          "name": "nftAddr",
          "type": "address"
        },
        {
          "internalType": "address[]",
          "name": "addrs",
          "type": "address[]"
        },
        {
          "internalType": "uint256[]",
          "name": "tokenIds",
          "type": "uint256[]"
        },
        {
          "internalType": "uint256",
          "name": "len",
          "type": "uint256"
        },
        {
          "internalType": "string",
          "name": "data",
          "type": "string"
        }
      ],
      "name": "transferManyErc721Value",
      "outputs": [],
      "stateMutability": "nonpayable",
      "type": "function"
    },
    {
      "inputs": [
        {
          "internalType": "address payable[]",
          "name": "addrs",
          "type": "address[]"
        },
        {
          "internalType": "uint256[]",
          "name": "values",
          "type": "uint256[]"
        },
        {
          "internalType": "uint256",
          "name": "len",
          "type": "uint256"
        },
        {
          "internalType": "uint256",
          "name": "_totalValue",
          "type": "uint256"
        },
        {
          "internalType": "string",
          "name": "data",
          "type": "string"
        }
      ],
      "name": "transferManyValue",
      "outputs": [],
      "stateMutability": "payable",
      "type": "function"
    }
  ],
  "transactionHash": "0xa9c4e2aca859972e9502badd7ac21cc78c9017e8e7cf4c26e21a265d669a3b85",
  "args": [],
  "solcInputHash": "8edee51dd49450a6af3c0c3fb2531243",
  "bytecode": "0x608060405234801561001057600080fd5b5061078f806100206000396000f3fe6080604052600436106100345760003560e01c806334e752ea1461003957806339929fb11461005b578063e6ee7ab91461007b575b600080fd5b34801561004557600080fd5b50610059610054366004610527565b61008e565b005b34801561006757600080fd5b50610059610076366004610486565b61019f565b6100596100893660046105d0565b61026c565b84518314801561009e5750835183145b80156100ab575060648311155b6100b457600080fd5b6000805b84811015610189578581815181106100cc57fe5b602002602001015182019150876001600160a01b03166323b872dd338984815181106100f457fe5b602002602001015189858151811061010857fe5b60200260200101516040518463ffffffff1660e01b815260040161012e939291906106d6565b602060405180830381600087803b15801561014857600080fd5b505af115801561015c573d6000803e3d6000fd5b505050506040513d601f19601f8201168201806040525081019061018091906106af565b506001016100b8565b5082811461019657600080fd5b50505050505050565b8351821480156101af5750825182145b80156101bc575060648211155b6101c557600080fd5b60005b8281101561026457856001600160a01b03166323b872dd338784815181106101ec57fe5b602002602001015187858151811061020057fe5b60200260200101516040518463ffffffff1660e01b8152600401610226939291906106d6565b600060405180830381600087803b15801561024057600080fd5b505af1158015610254573d6000803e3d6000fd5b5050600190920191506101c89050565b505050505050565b84518314801561027c5750835183145b8015610289575060648311155b61029257600080fd5b34821461029e57600080fd5b6000805b8481101561032a578581815181106102b657fe5b6020026020010151820191508681815181106102ce57fe5b60200260200101516001600160a01b03166108fc8783815181106102ee57fe5b60200260200101519081150290604051600060405180830381858888f19350505050158015610321573d6000803e3d6000fd5b506001016102a2565b5082811461026457600080fd5b803561034281610741565b92915050565b600082601f830112610358578081fd5b813561036b61036682610721565b6106fa565b81815291506020808301908481018184028601820187101561038c57600080fd5b60005b848110156103b45781356103a281610741565b8452928201929082019060010161038f565b505050505092915050565b600082601f8301126103cf578081fd5b81356103dd61036682610721565b8181529150602080830190848101818402860182018710156103fe57600080fd5b60005b848110156103b457813584529282019290820190600101610401565b600082601f83011261042d578081fd5b813567ffffffffffffffff811115610443578182fd5b610456601f8201601f19166020016106fa565b915080825283602082850101111561046d57600080fd5b8060208401602084013760009082016020015292915050565b600080600080600060a0868803121561049d578081fd5b85356104a881610741565b9450602086013567ffffffffffffffff808211156104c4578283fd5b6104d089838a01610348565b955060408801359150808211156104e5578283fd5b6104f189838a016103bf565b945060608801359350608088013591508082111561050d578283fd5b5061051a8882890161041d565b9150509295509295909350565b60008060008060008060c0878903121561053f578081fd5b863561054a81610741565b9550602087013567ffffffffffffffff80821115610566578283fd5b6105728a838b01610348565b96506040890135915080821115610587578283fd5b6105938a838b016103bf565b9550606089013594506080890135935060a08901359150808211156105b6578283fd5b506105c389828a0161041d565b9150509295509295509295565b600080600080600060a086880312156105e7578081fd5b853567ffffffffffffffff808211156105fe578283fd5b818801915088601f830112610611578283fd5b813561061f61036682610721565b80828252602080830192508086018d82838702890101111561063f578788fd5b8796505b84871015610669576106558e82610337565b845260019690960195928101928101610643565b509099508a01359350505080821115610680578283fd5b61068c89838a016103bf565b95506040880135945060608801359350608088013591508082111561050d578283fd5b6000602082840312156106c0578081fd5b815180151581146106cf578182fd5b9392505050565b6001600160a01b039384168152919092166020820152604081019190915260600190565b60405181810167ffffffffffffffff8111828210171561071957600080fd5b604052919050565b600067ffffffffffffffff821115610737578081fd5b5060209081020190565b6001600160a01b038116811461075657600080fd5b5056fea2646970667358221220c24358f020ecffbb36370a1606ace9235358a201654e89737fbdf66bee2848f064736f6c634300060c0033",
  "devdoc": {
    "kind": "dev",
    "methods": {},
    "version": 1
  },
  "userdoc": {
    "kind": "user",
    "methods": {},
    "version": 1
  },
  "storageLayout": {
    "storage": [],
    "types": null
  }
}